:100000000C9462000C948A000C948A000C948A0070
:100010000C948A000C948A000C948A000C948A0038
:100020000C948A000C948A000C948A000C94450469
:100030000C948A000C948A000C948A000C948A0018
:100040000C94FB030C948A000C94C9030C94A30336
:100050000C948A000C948A000C948A000C948A00F8
:100060000C948A000C948A000000000024002700F1
:100070002A0000000000250028002B0000000000DE
:1000800023002600290004040404040404040202DA
:100090000202020203030303030301020408102007
:1000A0004080010204081020010204081020000012
:1000B0000008000201000003040700000000000027
:1000C0000000060511241FBECFEFD8E0DEBFCDBF74
:1000D00011E0A0E0B1E0E2ECF0E102C005900D9289
:1000E000AE35B107D9F722E0AEE5B1E001C01D920F
:1000F000AE39B207E1F710E0C2E6D0E004C02197C4
:10010000FE010E945408C136D107C9F70E94B0050C
:100110000C945F080C940000CF92DF92EF92FF9254
:10012000DC01A03282E0B8070CF03EC0B7FD06C08B
:10013000A53BB1052CF0A4EBB0E002C0A0E0B0E01C
:1001400080919C0228E830E06901C81AD10887FD37
:10015000D394CC0CDD1CCC0CDD1C0D2C000CEE085B
:10016000FF0880919D0228E532E0281B310987FDB8
:100170003395220F331F220F331FA901330F660B54
:10018000770B9A01AB012C193D094E095F090E94BA
:100190000F0824EB30E040E050E00E94E507C20E7B
:1001A000D31EE41EF51ED60190919B029C3098F55B
:1001B00080919C0248E850E0481B510987FD539507
:1001C000440F551F440F551FA417B5078CF080919D
:1001D0009D0228E532E0281B310987FD3395220F67
:1001E000331F220F331FAD012A173B070CF4A9015F
:1001F00042505109440F551F2FB7F894892F90E0B2
:10020000FC01EE0FFF1F8E0F9F1FFC01E95FFD4FEA
:10021000528341832FBFFF90EF90DF90CF900895DE
:1002200096E0899FD0011124A45DBD4F90967C93E8
:100230006E935F9791E091969C939197909198021D
:10024000E0919902F0919A02992339F0309751F098
:10025000811108C08091480204C0309719F05C9663
:100260008C9109940895FC01538D448D252F30E025
:10027000842F90E0821B930B541710F0CF960895B3
:1002800001970895FC01918D828D981761F0828D00
:10029000DF01A80FB11D5D968C91928D9F5F9F73BA
:1002A000928F90E008958FEF9FEF0895FC01918D5C
:1002B000828D981731F0828DE80FF11D858D90E0C9
:1002C00008958FEF9FEF0895FC01918D228D892F66
:1002D00090E0805C9F4F821B91098F73992708954E
:1002E000FC01848DDF01A80FB11DA35ABF4F2C91D3
:1002F000848D90E001968F739927848FA689B789A2
:100300002C93A089B1898C9180648C93938D848D7A
:10031000981306C00288F389E02D80818F7D808349
:100320000895EF92FF920F931F93CF93DF93EC0109
:1003300081E0888F9B8D8C8D981305C0E889F989A1
:10034000808185FD24C0F62E0B8D10E00F5F1F4FBE
:100350000F731127E02E8C8DE8120CC00FB607FC2E
:10036000FACFE889F989808185FFF5CFCE010E9417
:100370007001F1CF8B8DFE01E80FF11DE35AFF4FA5
:10038000F0820B8FEA89FB898081806207C0EE8949
:10039000FF896083E889F98980818064808381E0B6
:1003A00090E0DF91CF911F910F91FF90EF90089512
:1003B000CF93DF93EC01888D8823C9F0EA89FB890C
:1003C000808185FD05C0A889B9898C9186FD0FC003
:1003D0000FB607FCF5CF808185FFF2CFA889B989D8
:1003E0008C9185FFEDCFCE010E947001E7CFDF91A8
:1003F000CF9108958AE691E00E94640121E0892B63
:1004000009F420E0822F089580E090E0892B29F004
:100410000E94FA0181110C9400000895CF92DF929E
:10042000EF92FF920F931F93CF93DF936C017A01AA
:100430008B01C0E0D0E0CE15DF0589F0D8016D91C9
:100440008D01D601ED91FC910190F081E02DC60166
:100450000995892B11F47E0102C02196ECCFC701CA
:10046000DF91CF911F910F91FF90EF90DF90CF9090
:100470000895089580E090E00895833081F028F495
:10048000813099F08230A1F008958730A9F088304A
:10049000B9F08430D1F4809180008F7D03C08091C9
:1004A00080008F7780938000089584B58F7702C095
:1004B00084B58F7D84BD08958091B0008F7703C08F
:1004C0008091B0008F7D8093B0000895CF93DF932B
:1004D000282F30E0F901E255FF4F8491F901E656EB
:1004E000FF4FD491F901EA57FF4FC491CC2391F00B
:1004F00081110E943D02EC2FF0E0EE0FFF1FE45847
:10050000FF4FA591B491EC91ED2381E090E021F4AF
:1005100080E002C080E090E0DF91CF910895862FC7
:100520000C9466021F93CF93DF93282F30E0F901DC
:10053000E255FF4F8491F901E656FF4FD491F9013E
:10054000EA57FF4FC491CC23C9F0162F81110E94A6
:100550003D02EC2FF0E0EE0FFF1FEE58FF4FA5918C
:10056000B4918FB7F894111105C09C91ED2FE095CF
:10057000E92302C0EC91ED2BEC938FBFDF91CF917B
:100580001F910895862F642F0C949202CF93DF93CE
:1005900090E0FC01E656FF4F2491FC01EA57FF4F23
:1005A0008491882361F190E0880F991FFC01E8593C
:1005B000FF4FC591D491FC01EE58FF4FA591B49126
:1005C000611109C09FB7F8948881209582238883A0
:1005D000EC912E230BC0623061F49FB7F894388100
:1005E000822F809583238883EC912E2B2C939FBFA1
:1005F00006C08FB7F894E8812E2B28838FBFDF9138
:10060000CF910895862F642F0C94C6023FB7F894BB
:100610008091640190916501A0916601B09167019C
:1006200026B5A89B05C02F3F19F00196A11DB11D4D
:100630003FBFBA2FA92F982F8827820F911DA11D88
:10064000B11DBC01CD0142E0660F771F881F991FC5
:100650004A95D1F708952FB7F89460916001709191
:10066000610180916201909163012FBF08950F9302
:100670001F93CF93DF93C82FD62F86E0C89FF0013A
:100680001124E45DFD4F11A2878D90A18130910569
:10069000F1F01CF4892B49F043C082309105A9F197
:1006A0000397F1F560E070E034C06623C9F161E0C2
:1006B00070E08C2F0E9410010E942B036093840233
:1006C00070938502809386029093870229C00E94CE
:1006D0002B030091840210918502209186023091B3
:1006E0008702AB01BC01401B510B620B730B809165
:1006F000960290919702A0E0B0E084179507A607B4
:10070000B70718F462E070E004C0D11109C063E0DB
:1007100070E08C2FDF91CF911F910F910C941001FD
:10072000DF91CF911F910F91089561E08CE00E94BD
:10073000920260E08DE00E94920280E090E00C94D2
:100740008C000E945A081F920F920FB60F9211242C
:100750002F933F934F935F936F937F938F939F93C9
:10076000AF93BF93EF93FF938AE691E00E947001ED
:10077000FF91EF91BF91AF919F918F917F916F9179
:100780005F914F913F912F910F900FBE0F901F904F
:1007900018951F920F920FB60F9211242F938F93DB
:1007A0009F93EF93FF93E0917A01F0917B01808119
:1007B000E0918001F091810182FD12C090818091D1
:1007C00083018F5F8F7320918401821751F0E09134
:1007D0008301F0E0E659FE4F958F8093830101C0BD
:1007E0008081FF91EF919F918F912F910F900FBE7C
:1007F0000F901F9018951F920F920FB60F92112411
:100800002F933F938F939F93AF93BF9380916001FA
:1008100090916101A0916201B091630130915F01FB
:1008200023E0230F2D3720F40196A11DB11D05C033
:1008300026E8230F0296A11DB11D20935F0180932E
:10084000600190936101A0936201B0936301809174
:10085000640190916501A0916601B09167010196D4
:10086000A11DB11D8093640190936501A093660161
:10087000B0936701BF91AF919F918F913F912F915D
:100880000F900FBE0F901F9018951F920F920FB6EA
:100890000F9211242F933F934F935F936F937F9306
:1008A0008F939F93AF93BF93EF93FF9380915E01DC
:1008B00087FF05C010928500109284001BC0209114
:1008C0005E01022E000C330B80912B0290E0281762
:1008D000390784F480915E01082E000C990BFC010D
:1008E000EE0FFF1F8E0F9F1FFC01E95FFD4F808100
:1008F00086FD15C080915E018F5F80935E0120911F
:100900005E01022E000C330B80912B0290E0281721
:100910003907C4F480915E018C3064F113C080917A
:100920005E01082E000C990BFC01EE0FFF1F8E0FCD
:100930009F1FFC01E95FFD4F808160E08F730E9483
:100940009202D8CF809184009091850004968034E3
:100950009C4918F480E49CE905C080918400909142
:100960008500049690938900809388008FEF809390
:100970005E013BC0209184003091850080915E0132
:10098000082E000C990BFC01EE0FFF1F8E0F9F1F0E
:10099000FC01E95FFD4F81819281820F931F90934B
:1009A00089008093880080915E01082E000C990BCD
:1009B000FC01EE0FFF1F8E0F9F1FFC01E95FFD4F33
:1009C000808186FF12C080915E01082E000C990B79
:1009D000FC01EE0FFF1F8E0F9F1FFC01E95FFD4F13
:1009E000808161E08F730E949202FF91EF91BF912D
:1009F000AF919F918F917F916F915F914F913F91B7
:100A00002F910F900FBE0F901F90189510926D01AF
:100A100010926C0188EE93E0A0E0B0E080936E014C
:100A200090936F01A0937001B093710185E291E002
:100A300090936B0180936A0185EC90E0909377012D
:100A40008093760184EC90E0909379018093780113
:100A500080EC90E090937B0180937A0181EC90E0B0
:100A600090937D0180937C0182EC90E090937F01D4
:100A700080937E0186EC90E09093810180938001C9
:100A800010928301109284011092850110928601C8
:100A900080912B028C30A0F491E0980F90932B0260
:100AA00080939B0290E0FC01EE0FFF1F8E0F9F1FB3
:100AB000FC01E95FFD4F88EB9BE09283818303C0DB
:100AC0008FEF80939B0210922E02109232021092AE
:100AD00031021092330287E391E090932D028093CC
:100AE0002C0280E090E0FC01E45DFD4F148E10A22A
:100AF000178E11A206968C339105A9F784E091E038
:100B000090938F0280938E0280E091E09093910207
:100B10008093900284E0809392028093930288E015
:100B200091E090938D0280938C028AE090E0909304
:100B300095028093940284EF91E0909397028093C2
:100B4000960210929A0210929902109288021092C4
:100B5000890210928A0210928B02109298020895D4
:100B6000789484B5826084BD84B5816084BD85B588
:100B7000826085BD85B5816085BD80916E00816094
:100B800080936E001092810080918100826080933A
:100B9000810080918100816080938100809180003C
:100BA0008160809380008091B10084608093B10067
:100BB0008091B00081608093B00080917A00846061
:100BC00080937A0080917A00826080937A0080918D
:100BD0007A00816080937A0080917A0080688093A7
:100BE0007A001092C10061E08CE00E94C60261E0D0
:100BF0008DE00E94C60280919B028C3008F051C0AB
:100C000061E08BE00E94C60280919B02E82FF0E039
:100C10009F01220F331FE20FF31FE95FFD4F908109
:100C2000907C9B60908310929C0210929D026CE0DD
:100C30000E9448082CE0829FB001112440E050E05F
:100C40009A01260F371FF901EE0FFF1F2E0F3F1FCE
:100C5000F901E95FFD4F908196FD16C04F5F5F4F30
:100C60004C30510569F781110FC01092800082E06D
:100C7000809381001092850010928400B19A809137
:100C80006F00826080936F00E0919B02F0E0CF01E3
:100C9000880F991FE80FF91FE95FFD4F808180647D
:100CA00080830E949503412C512C320143942224CD
:100CB0002A94322C40E150E06DE371E08AE691E045
:100CC0000E940E0281E0809398020E942B03009103
:100CD00088021091890220918A0230918B02AB0127
:100CE000BC01401B510B620B730B809194029091DD
:100CF0009502A0E0B0E084179507A607B70708F0B3
:100D000006C1C0E080919202C81760F4E0918E02A3
:100D1000F0918F02EC0FF11D62E080810E94C6020B
:100D2000CF5FF0CF912C80919302981608F05FC0AE
:100D3000092D10E0E0919002F0919102E00FF11F77
:100D400061E080810E94C602E0919002F0919102E0
:100D5000E00FF11F60E080810E949202D301C20186
:100D6000092C04C0880F991FAA1FBB1F0A94D2F731
:100D70005C017C01E094F094812C809192028816B1
:100D8000F8F4C82DD0E0E0918E02F0918F02EC0FC4
:100D9000FD1F80810E9466022496CC0FDD1FC45D7A
:100DA000DD4F892B29F4888199818A299B2904C0E8
:100DB000888199818E219F21998388838394DDCFB7
:100DC000E0919002F0919102E00FF11F61E08081CB
:100DD0000E9492028091900290919102FC01E00F9A
:100DE000F11F60E080810E94C60293949CCFE8E4EA
:100DF000F2E083819481892B21F410823282218256
:100E00001582369682E0E438F80799F710E006E09C
:100E100080919202181708F052C0F12CC12FD0E037
:100E2000CC0FDD1FCC5CDD4F20919302F21608F051
:100E300044C0688179810F2C02C0769567950A9429
:100E4000E2F761707727129F900111242F0D311D59
:100E5000E0918C02F0918D02E20FF31FA081ECE291
:100E6000F2E080E0458D568D4217530711F4617012
:100E70001AC08F5F36968A30A9F7672BE1F0E8E455
:100E8000F2E080E090E04081411110C0089FF00145
:100E9000099FF00D1124E45DFD4FA48F368F258F3F
:100EA00010A2178E61E00E94370305C001963696A6
:100EB0008A30910541F7F394B7CF1F5FA9CF80E047
:100EC00090E0C0E0FC01E45DFD4F21A12111C1E0F3
:100ED00006968C339105B1F70E942B03609388022C
:100EE0007093890280938A0290938B02CC2379F0CD
:100EF00080914D02882359F080914B0290914C02D1
:100F0000019729F4C0914802CA3229F406C0109210
:100F10009802C0E008C0C33231F410926901109207
:100F200068010E9495038091680190916901FC011C
:100F3000E85EFE4F2081C21305C0019690936901BF
:100F40008093680180916801909169010397A1F4F1
:100F500061E08DE00E94920260E08CE00E949202CB
:100F600082E590E00E948C004EE050E06EE471E07B
:100F70008AE691E00E940E020E9406036B017C014A
:100F800084E6882E912CA12CB12C0E940603DC0152
:100F9000CB018C199D09AE09BF09883E9340A1057C
:100FA000B10558F091E0891A9108A108B10828EE1E
:100FB000C20E23E0D21EE11CF11C81149104A10495
:100FC000B10419F70E94040275CE052E97FB1EF49A
:100FD00000940E94FC0757FD07D00E94170807FCE9
:100FE00003D04EF40C94FC07509540953095219514
:100FF0003F4F4F4F5F4F0895909580957095619545
:101000007F4F8F4F9F4F08950E943908A59F900DE5
:10101000B49F900DA49F800D911D11240895B7FFDA
:101020000C9404080E940408821B930B0895A1E20B
:101030001A2EAA1BBB1BFD010DC0AA1FBB1FEE1F52
:10104000FF1FA217B307E407F50720F0A21BB30B9D
:10105000E40BF50B661F771F881F991F1A9469F719
:1010600060957095809590959B01AC01BD01CF0175
:101070000895A29FB001B39FC001A39F700D811D71
:101080001124911DB29F700D811D1124911D089591
:10109000991B79E004C0991F961708F0961B881FCA
:1010A0007A95C9F780950895EE0FFF1F0590F4918A
:1010B000E02D099481E090E0F8940C945F08F89496
:0210C000FFCF60
:1010C200050403020807060931323341343536423A
:1010D200373839432A3023443133333731333337C6
:1010E200000000000091010E023301D801640142A8
:1010F200015601000000000203C2028F0244696728
:10110200697465207375612073656E68610053654B
:0E1112006E686120636F727265746121000067
:00000001FF
